:020000040800F2
:1000000000500020BD090008050A0008050A000884
:10001000050A0008050A0008050A0008000000009B
:10002000000000000000000000000000050A0008B9
:10003000050A000800000000050A0008A1080008E1
:10004000050A0008050A0008050A0008050A000854
:10005000050A0008050A0008050A0008050A000844
:10006000CD040008F1040008050A0008050A00088C
:10007000050A0008050A0008050A0008050A000824
:10008000050A0008050A0008050A0008050A000814
:10009000050A0008050A0008050A0008050A000804
:1000A000050A000889040008050A0008050A000876
:1000B000050A0008050A0008050A0008050A0008E4
:1000C000050A0008050A0008050A0008050A0008D4
:1000D000050A0008050A0008050A0008050A0008C4
:1000E000050A0008050A0008050A000800000000CB
:1000F0000000000000000000000000000000000000
:0C01000000000000000000005FF808F1A3
:10010C0010B5054C237833B9044B13B10448AFF345
:10011C0000800123237010BD0800002000000000A7
:10012C00500A000808B5034B1BB103490348AFF351
:10013C00008008BD000000000C000020500A0008E0
:10014C0080B400AF154B1B68144A43F001031360D5
:10015C00124B5A681149124B13404B600F4B1B68E2
:10016C000E4A23F0847323F4803313600B4B1B680B
:10017C000A4A23F480231360084B5B68074A23F474
:10018C00FE035360054B4FF41F029A60054B4FF072
:10019C0000629A6000BFBD4680BC704700100240F0
:1001AC000000FFF800ED00E080B485B000AF002344
:1001BC00FB600023BB6000237B602C4B5B6803F06F
:1001CC000C03FB60FB68042B07D0082B09D0002B19
:1001DC0033D1274B274A1A6033E0254B254A1A6046
:1001EC002FE0224B5B6803F47013BB601F4B5B6802
:1001FC0003F480337B60BB689B0C0233BB607B6871
:10020C00002B06D1BB681C4A02FB03F3184A13608F
:10021C0017E0164B5B6803F40033002B06D0BB6869
:10022C00154A02FB03F3124A13600AE0BB68114A39
:10023C0002FB03F30E4A136003E00D4B0D4A1A60E8
:10024C0000BF0A4B5B681B0903F00F030B4AD35C1E
:10025C00FB60074B1A68FB6822FA03F3044A13602D
:10026C0000BF1437BD4680BC704700BF0010024071
:10027C000000002000127A0000093D00680A000806
:10028C0080B400AF044BDB681B0A03F0070318466D
:10029C00BD4680BC704700BF00ED00E080B483B069
:1002AC0000AF0346FB7197F90730002B0BDBFB7992
:1002BC0003F01F02064997F907305B09012000FA89
:1002CC0002F241F8232000BF0C37BD4680BC7047BA
:1002DC0000E100E080B483B000AF03463960FB71ED
:1002EC0097F90730002B0ADB3B68DAB20C4997F917
:1002FC0007301201D2B20B4483F800230AE03B68AA
:10030C00DAB20849FB7903F00F03043B1201D2B2B5
:10031C000B441A7600BF0C37BD4680BC704700BF3B
:10032C0000E100E000ED00E080B489B000AFF860BF
:10033C00B9607A60FB6803F00703FB61FB69C3F1EA
:10034C000703042B28BF0423BB61FB690433062B72
:10035C0002D9FB69033B00E000237B614FF0FF32C5
:10036C00BB6902FA03F3DA43BB681A407B699A4013
:10037C004FF0FF317B6901FA03F3D9437B680B40E3
:10038C00134318462437BD4680BC704780B582B0F5
:10039C0000AF304B9B692F4A43F0340393612D4BD4
:1003AC009B6903F034037B607B682B4B9B682A4A68
:1003BC0043F408539360294B5B68284A23F00C03E1
:1003CC005360264B1B68254A43F00C031360234BE8
:1003DC009B68224A23F00C039360204BDB681F4A76
:1003EC0043F00C03D3601E4BDB681D4A43F00C0337
:1003FC00D3601B4B1B681A4A23F47F431360184BC2
:10040C001B68174A43F408431360FFF739FF034690
:10041C00002200211846FFF787FF034619460820E3
:10042C00FFF758FF0820FFF739FFFFF729FF0346B6
:10043C00002200211846FFF777FF034619460920D2
:10044C00FFF748FF0920FFF729FF00BF0837BD461B
:10045C0080BD00BF001002400000014000040140BC
:10046C000010014080B500AF00F09AF8FFF78EFF46
:10047C0000F0AEF900F058FAFEE7000080B400AFCF
:10048C000B4B1B690A4A23F001031361094B1B78C0
:10049C00002B06D0084B00221A70084B01221A7050
:1004AC0002E0044B01221A7000BFBD4680BC7047AD
:1004BC00002C0140260000202500002024000020F4
:1004CC0080B500AF054B04225A61054B1B78002BFD
:1004DC0002D0002000F0ECF900BF80BD0004014008
:1004EC002600002080B500AF054B08225A61054B51
:1004FC001B78002B02D0012000F0DAF900BF80BD80
:10050C00000401402600002080B483B000AF0346F5
:10051C003960FB7197F90730002B0ADB3B68DAB2C4
:10052C000C4997F907301201D2B20B4483F800231F
:10053C000AE03B68DAB20849FB7903F00F03043B8D
:10054C001201D2B20B441A7600BF0C37BD4680BCE8
:10055C00704700BF00E100E000ED00E080B582B024
:10056C0000AF78607B68013BB3F1807F01D301233E
:10057C000FE00A4A7B68013B53600F214FF0FF30BC
:10058C00FFF7C2FF054B00229A60044B07221A604A
:10059C00002318460837BD4680BD00BF10E000E0C0
:1005AC0080B582B000AF434B9B69424A43F00103D4
:1005BC009361404B9B6903F001037B607B683E4B6E
:1005CC001B683D4A23F0070313603B4B1B683A4AF8
:1005DC0043F002031360374B1B68364A43F4802305
:1005EC001360344B1B68334A43F48033136000BFF1
:1005FC00304B1B6803F40033002BF9D02D4B5B6898
:10060C002C4A23F47C1353602A4B5B68294A43F42D
:10061C00E8135360274B1B68264A43F08073136022
:10062C0000BF244B1B6803F00073002BF9D0214B47
:10063C005B68204A23F0F00353601E4B1D4A5B6835
:10064C0053601C4B5B681B4A23F4E0635360194BEB
:10065C005B68184A43F480635360164B5B68154A19
:10066C0023F460535360134B124A5B685360114B75
:10067C005B68104A23F0030353600E4B5B680D4A12
:10068C0043F00203536000BF0A4B5B6803F00C039A
:10069C00082BF9D1FFF788FD084B1B68084AA2FB11
:1006AC0003239B091846FFF759FF00BF0837BD46C7
:1006BC0080BD00BF0010024000200240000000205E
:1006CC00D34D621080B400AF044BDB681B0A03F0FF
:1006DC0007031846BD4680BC704700BF00ED00E024
:1006EC0080B483B000AF0346FB7197F90730002B41
:1006FC000BDBFB7903F01F02064997F907305B0906
:10070C00012000FA02F241F8232000BF0C37BD464D
:10071C0080BC704700E100E080B483B000AF0346BA
:10072C003960FB7197F90730002B0ADB3B68DAB2B2
:10073C000C4997F907301201D2B20B4483F800230D
:10074C000AE03B68DAB20849FB7903F00F03043B7B
:10075C001201D2B20B441A7600BF0C37BD4680BCD6
:10076C00704700BF00E100E000ED00E080B489B00C
:10077C0000AFF860B9607A60FB6803F00703FB61B7
:10078C00FB69C3F10703042B28BF0423BB61FB697E
:10079C000433062B02D9FB69033B00E000237B6189
:1007AC004FF0FF32BB6902FA03F3DA43BB681A401D
:1007BC007B699A404FF0FF317B6901FA03F3D9430F
:1007CC007B680B40134318462437BD4680BC7047EA
:1007DC0080B582B000AF2D4B9B692C4A43F400636B
:1007EC0093612A4B9B6903F400637B607B68FFF782
:1007FC0069FF0346002200211846FFF7B7FF0346A6
:10080C0019461920FFF788FF1920FFF769FF204BC5
:10081C001B681F4A23F45C7313601D4B40F2572274
:10082C00DA621B4B41F61F429A62194B00221A6383
:10083C00174B5B69164A43F001035361144B1B6859
:10084C00134A23F080031360114B1B68104A23F0EA
:10085C00080313600E4B1B680D4A43F0080313602A
:10086C000B4B5B680A4A23F070035360084B5B68C0
:10087C00074A43F020035360054BDB68044A43F0FE
:10088C000103D36000BF0837BD4680BD0010024095
:10089C00002C014080B400AF044B1B68013B034AA1
:1008AC00136000BFBD4680BC704700BF280000200D
:1008BC0080B483B000AF0346FB71164B1B78DBB2E0
:1008CC00002B0ED0134B00221A70134B00221A70FF
:1008DC00124B01221A70124B1B68114A43F0010390
:1008EC0013600E4B1B78002B0FD0FB79002B14BF21
:1008FC0001230023D9B2084B1B78DBB25A1CD0B2AF
:10090C00054A10701A46074B995400BF0C37BD4668
:10091C0080BC704704000020460000202500002009
:10092C00002C01402C00002080B500AF00BF084B0C
:10093C001B78002BFBD000F00DF80346002B02D0E7
:10094C0000F020F801E000F02DF800BF80BD00BFE2
:10095C002400002080B400AF084B1B78DBB21A2BAC
:10096C0004D1074B02221A70012303E0044B00222E
:10097C001A7000231846BD4680BC70474600002004
:10098C004700002080B500AF044B01221A70044BC5
:10099C0000221A70FFF7C8FF00BF80BD04000020C2
:1009AC002400002080B400AF00BFBD4680BC70475F
:1009BC00002103E00B4B5B58435004310A480B4BAE
:1009CC0042189A42F6D30A4A02E0002342F8043B4A
:1009DC00084B9A42F9D3FFF7B3FB00F00FF8FFF77F
:1009EC0041FD7047800A000800000020080000202C
:1009FC000800002048000020FEE7000070B500252C
:100A0C000C4E0D4CA41BA410A54209D100F01AF8F1
:100A1C0000250A4E0A4CA41BA410A54205D170BD9A
:100A2C0056F8253098470135EEE756F825309847AB
:100A3C000135F2E7780A0008780A0008780A0008FD
:100A4C007C0A0008F8B500BFF8BC08BC9E4670478D
:0C0A5C00F8B500BFF8BC08BC9E4670470F
:100A68000000000000000000010203040607080956
:040A78003101000840
:040A7C000D01000860
:080A80000024F4000100000055
:04000005080009BD29
:00000001FF
